{
  "_format": "hh-sol-artifact-1",
  "contractName": "PassportSBT",
  "sourceName": "contracts/PassportSBT.sol",
  "abi": [
    {
      "inputs": [],
      "stateMutability": "nonpayable",
      "type": "constructor"
    },
    {
      "anonymous": false,
      "inputs": [
        {
          "indexed": true,
          "internalType": "address",
          "name": "account",
          "type": "address"
        },
        {
          "indexed": true,
          "internalType": "address",
          "name": "operator",
          "type": "address"
        },
        {
          "indexed": false,
          "internalType": "bool",
          "name": "approved",
          "type": "bool"
        }
      ],
      "name": "ApprovalForAll",
      "type": "event"
    },
    {
      "anonymous": false,
      "inputs": [
        {
          "indexed": true,
          "internalType": "address",
          "name": "operator",
          "type": "address"
        },
        {
          "indexed": true,
          "internalType": "address",
          "name": "from",
          "type": "address"
        },
        {
          "indexed": true,
          "internalType": "address",
          "name": "to",
          "type": "address"
        },
        {
          "indexed": false,
          "internalType": "uint256[]",
          "name": "ids",
          "type": "uint256[]"
        },
        {
          "indexed": false,
          "internalType": "uint256[]",
          "name": "values",
          "type": "uint256[]"
        }
      ],
      "name": "TransferBatch",
      "type": "event"
    },
    {
      "anonymous": false,
      "inputs": [
        {
          "indexed": true,
          "internalType": "address",
          "name": "operator",
          "type": "address"
        },
        {
          "indexed": true,
          "internalType": "address",
          "name": "from",
          "type": "address"
        },
        {
          "indexed": true,
          "internalType": "address",
          "name": "to",
          "type": "address"
        },
        {
          "indexed": false,
          "internalType": "uint256",
          "name": "id",
          "type": "uint256"
        },
        {
          "indexed": false,
          "internalType": "uint256",
          "name": "value",
          "type": "uint256"
        }
      ],
      "name": "TransferSingle",
      "type": "event"
    },
    {
      "anonymous": false,
      "inputs": [
        {
          "indexed": false,
          "internalType": "string",
          "name": "value",
          "type": "string"
        },
        {
          "indexed": true,
          "internalType": "uint256",
          "name": "id",
          "type": "uint256"
        }
      ],
      "name": "URI",
      "type": "event"
    },
    {
      "inputs": [],
      "name": "ENS",
      "outputs": [
        {
          "internalType": "uint256",
          "name": "",
          "type": "uint256"
        }
      ],
      "stateMutability": "view",
      "type": "function"
    },
    {
      "inputs": [],
      "name": "GITHUB",
      "outputs": [
        {
          "internalType": "uint256",
          "name": "",
          "type": "uint256"
        }
      ],
      "stateMutability": "view",
      "type": "function"
    },
    {
      "inputs": [],
      "name": "SNAPSHOT_PROPOSALS_PROVIDER",
      "outputs": [
        {
          "internalType": "uint256",
          "name": "",
          "type": "uint256"
        }
      ],
      "stateMutability": "view",
      "type": "function"
    },
    {
      "inputs": [],
      "name": "SNAPSHOT_VOTES_PROVIDER",
      "outputs": [
        {
          "internalType": "uint256",
          "name": "",
          "type": "uint256"
        }
      ],
      "stateMutability": "view",
      "type": "function"
    },
    {
      "inputs": [],
      "name": "TWITTER",
      "outputs": [
        {
          "internalType": "uint256",
          "name": "",
          "type": "uint256"
        }
      ],
      "stateMutability": "view",
      "type": "function"
    },
    {
      "inputs": [
        {
          "internalType": "address",
          "name": "account",
          "type": "address"
        },
        {
          "internalType": "uint256",
          "name": "id",
          "type": "uint256"
        }
      ],
      "name": "balanceOf",
      "outputs": [
        {
          "internalType": "uint256",
          "name": "",
          "type": "uint256"
        }
      ],
      "stateMutability": "view",
      "type": "function"
    },
    {
      "inputs": [
        {
          "internalType": "address[]",
          "name": "accounts",
          "type": "address[]"
        },
        {
          "internalType": "uint256[]",
          "name": "ids",
          "type": "uint256[]"
        }
      ],
      "name": "balanceOfBatch",
      "outputs": [
        {
          "internalType": "uint256[]",
          "name": "",
          "type": "uint256[]"
        }
      ],
      "stateMutability": "view",
      "type": "function"
    },
    {
      "inputs": [
        {
          "internalType": "address",
          "name": "account",
          "type": "address"
        },
        {
          "internalType": "address",
          "name": "operator",
          "type": "address"
        }
      ],
      "name": "isApprovedForAll",
      "outputs": [
        {
          "internalType": "bool",
          "name": "",
          "type": "bool"
        }
      ],
      "stateMutability": "view",
      "type": "function"
    },
    {
      "inputs": [
        {
          "internalType": "uint256",
          "name": "tokenType",
          "type": "uint256"
        },
        {
          "internalType": "string",
          "name": "stampHash",
          "type": "string"
        }
      ],
      "name": "mint",
      "outputs": [],
      "stateMutability": "nonpayable",
      "type": "function"
    },
    {
      "inputs": [
        {
          "internalType": "address",
          "name": "from",
          "type": "address"
        },
        {
          "internalType": "address",
          "name": "to",
          "type": "address"
        },
        {
          "internalType": "uint256[]",
          "name": "ids",
          "type": "uint256[]"
        },
        {
          "internalType": "uint256[]",
          "name": "amounts",
          "type": "uint256[]"
        },
        {
          "internalType": "bytes",
          "name": "data",
          "type": "bytes"
        }
      ],
      "name": "safeBatchTransferFrom",
      "outputs": [],
      "stateMutability": "nonpayable",
      "type": "function"
    },
    {
      "inputs": [
        {
          "internalType": "address",
          "name": "from",
          "type": "address"
        },
        {
          "internalType": "address",
          "name": "to",
          "type": "address"
        },
        {
          "internalType": "uint256",
          "name": "id",
          "type": "uint256"
        },
        {
          "internalType": "uint256",
          "name": "amount",
          "type": "uint256"
        },
        {
          "internalType": "bytes",
          "name": "data",
          "type": "bytes"
        }
      ],
      "name": "safeTransferFrom",
      "outputs": [],
      "stateMutability": "nonpayable",
      "type": "function"
    },
    {
      "inputs": [
        {
          "internalType": "address",
          "name": "operator",
          "type": "address"
        },
        {
          "internalType": "bool",
          "name": "approved",
          "type": "bool"
        }
      ],
      "name": "setApprovalForAll",
      "outputs": [],
      "stateMutability": "nonpayable",
      "type": "function"
    },
    {
      "inputs": [
        {
          "internalType": "bytes4",
          "name": "interfaceId",
          "type": "bytes4"
        }
      ],
      "name": "supportsInterface",
      "outputs": [
        {
          "internalType": "bool",
          "name": "",
          "type": "bool"
        }
      ],
      "stateMutability": "view",
      "type": "function"
    },
    {
      "inputs": [
        {
          "internalType": "uint256",
          "name": "",
          "type": "uint256"
        }
      ],
      "name": "uri",
      "outputs": [
        {
          "internalType": "string",
          "name": "",
          "type": "string"
        }
      ],
      "stateMutability": "view",
      "type": "function"
    }
  ],
  "bytecode": "0x60806040523480156200001157600080fd5b506040518060400160405280600681526020017f617373657473000000000000000000000000000000000000000000000000000081525062000059816200011860201b60201c565b506200007f3360006001604051806020016040528060008152506200012d60201b60201c565b620000a333600180604051806020016040528060008152506200012d60201b60201c565b620000c83360026001604051806020016040528060008152506200012d60201b60201c565b620000ed3360036001604051806020016040528060008152506200012d60201b60201c565b620001123360046001604051806020016040528060008152506200012d60201b60201c565b62001039565b8060029081620001299190620008e7565b5050565b600073ffffffffffffffffffffffffffffffffffffffff168473ffffffffffffffffffffffffffffffffffffffff16036200019f576040517f08c379a0000000000000000000000000000000000000000000000000000000008152600401620001969062000a55565b60405180910390fd5b6000620001b16200031460201b60201c565b90506000620001c6856200031c60201b60201c565b90506000620001db856200031c60201b60201c565b9050620001f4836000898585896200039d60201b60201c565b8460008088815260200190815260200160002060008973ffffffffffffffffffffffffffffffffffffffff1673ffffffffffffffffffffffffffffffffffffffff168152602001908152602001600020600082825462000255919062000aa6565b925050819055508673ffffffffffffffffffffffffffffffffffffffff16600073ffffffffffffffffffffffffffffffffffffffff168473ffffffffffffffffffffffffffffffffffffffff167fc3d58168c5ae7397731d063d5bbf3d657854427343f4c083240f7aacaa2d0f628989604051620002d592919062000af2565b60405180910390a4620002f4836000898585896200044160201b60201c565b6200030b836000898989896200044960201b60201c565b50505050505050565b600033905090565b60606000600167ffffffffffffffff8111156200033e576200033d62000678565b5b6040519080825280602002602001820160405280156200036d5781602001602082028036833780820191505090505b509050828160008151811062000388576200038762000b1f565b5b60200260200101818152505080915050919050565b600073ffffffffffffffffffffffffffffffffffffffff168573ffffffffffffffffffffffffffffffffffffffff16146200040f576040517f08c379a0000000000000000000000000000000000000000000000000000000008152600401620004069062000b9e565b60405180910390fd5b620004398686868686604051806020016040528060008152506200064260201b6200096a1760201c565b505050505050565b505050505050565b620004758473ffffffffffffffffffffffffffffffffffffffff166200064a60201b620009721760201c565b156200063a578373ffffffffffffffffffffffffffffffffffffffff1663f23a6e6187878686866040518663ffffffff1660e01b8152600401620004be95949392919062000c9f565b6020604051808303816000875af1925050508015620004fd57506040513d601f19601f82011682018060405250810190620004fa919062000d6f565b60015b620005ae576200050c62000dae565b806308c379a0036200056f57506200052362000e09565b8062000530575062000571565b806040517f08c379a000000000000000000000000000000000000000000000000000000000815260040162000566919062000ee5565b60405180910390fd5b505b6040517f08c379a0000000000000000000000000000000000000000000000000000000008152600401620005a59062000f7f565b60405180910390fd5b63f23a6e6160e01b7bffffffffffffffffffffffffffffffffffffffffffffffffffffffff1916817bffffffffffffffffffffffffffffffffffffffffffffffffffffffff19161462000638576040517f08c379a00000000000000000000000000000000000000000000000000000000081526004016200062f9062001017565b60405180910390fd5b505b505050505050565b505050505050565b6000808273ffffffffffffffffffffffffffffffffffffffff163b119050919050565b600081519050919050565b7f4e487b7100000000000000000000000000000000000000000000000000000000600052604160045260246000fd5b7f4e487b7100000000000000000000000000000000000000000000000000000000600052602260045260246000fd5b60006002820490506001821680620006ef57607f821691505b602082108103620007055762000704620006a7565b5b50919050565b60008190508160005260206000209050919050565b60006020601f8301049050919050565b600082821b905092915050565b6000600883026200076f7fffffffffffffffffffffffffffffffffffffffffffffffffffffffffffffffff8262000730565b6200077b868362000730565b95508019841693508086168417925050509392505050565b6000819050919050565b6000819050919050565b6000620007c8620007c2620007bc8462000793565b6200079d565b62000793565b9050919050565b6000819050919050565b620007e483620007a7565b620007fc620007f382620007cf565b8484546200073d565b825550505050565b600090565b6200081362000804565b62000820818484620007d9565b505050565b5b8181101562000848576200083c60008262000809565b60018101905062000826565b5050565b601f821115620008975762000861816200070b565b6200086c8462000720565b810160208510156200087c578190505b620008946200088b8562000720565b83018262000825565b50505b505050565b600082821c905092915050565b6000620008bc600019846008026200089c565b1980831691505092915050565b6000620008d78383620008a9565b9150826002028217905092915050565b620008f2826200066d565b67ffffffffffffffff8111156200090e576200090d62000678565b5b6200091a8254620006d6565b620009278282856200084c565b600060209050601f8311600181146200095f57600084156200094a578287015190505b620009568582620008c9565b865550620009c6565b601f1984166200096f866200070b565b60005b82811015620009995784890151825560018201915060208501945060208101905062000972565b86831015620009b95784890151620009b5601f891682620008a9565b8355505b6001600288020188555050505b505050505050565b600082825260208201905092915050565b7f455243313135353a206d696e7420746f20746865207a65726f2061646472657360008201527f7300000000000000000000000000000000000000000000000000000000000000602082015250565b600062000a3d602183620009ce565b915062000a4a82620009df565b604082019050919050565b6000602082019050818103600083015262000a708162000a2e565b9050919050565b7f4e487b7100000000000000000000000000000000000000000000000000000000600052601160045260246000fd5b600062000ab38262000793565b915062000ac08362000793565b925082820190508082111562000adb5762000ada62000a77565b5b92915050565b62000aec8162000793565b82525050565b600060408201905062000b09600083018562000ae1565b62000b18602083018462000ae1565b9392505050565b7f4e487b7100000000000000000000000000000000000000000000000000000000600052603260045260246000fd5b7f4e6f74207472616e7366657261626c6521000000000000000000000000000000600082015250565b600062000b86601183620009ce565b915062000b938262000b4e565b602082019050919050565b6000602082019050818103600083015262000bb98162000b77565b9050919050565b600073ffffffffffffffffffffffffffffffffffffffff82169050919050565b600062000bed8262000bc0565b9050919050565b62000bff8162000be0565b82525050565b600081519050919050565b600082825260208201905092915050565b60005b8381101562000c4157808201518184015260208101905062000c24565b60008484015250505050565b6000601f19601f8301169050919050565b600062000c6b8262000c05565b62000c77818562000c10565b935062000c8981856020860162000c21565b62000c948162000c4d565b840191505092915050565b600060a08201905062000cb6600083018862000bf4565b62000cc5602083018762000bf4565b62000cd4604083018662000ae1565b62000ce3606083018562000ae1565b818103608083015262000cf7818462000c5e565b90509695505050505050565b6000604051905090565b600080fd5b60007fffffffff0000000000000000000000000000000000000000000000000000000082169050919050565b62000d498162000d12565b811462000d5557600080fd5b50565b60008151905062000d698162000d3e565b92915050565b60006020828403121562000d885762000d8762000d0d565b5b600062000d988482850162000d58565b91505092915050565b60008160e01c9050919050565b600060033d111562000dd05760046000803e62000dcd60005162000da1565b90505b90565b62000dde8262000c4d565b810181811067ffffffffffffffff8211171562000e005762000dff62000678565b5b80604052505050565b600060443d1062000ea15762000e1e62000d03565b60043d036004823e80513d602482011167ffffffffffffffff8211171562000e4857505062000ea1565b808201805167ffffffffffffffff81111562000e68575050505062000ea1565b80602083010160043d03850181111562000e8757505050505062000ea1565b62000e988260200185018662000dd3565b82955050505050505b90565b600062000eb1826200066d565b62000ebd8185620009ce565b935062000ecf81856020860162000c21565b62000eda8162000c4d565b840191505092915050565b6000602082019050818103600083015262000f01818462000ea4565b905092915050565b7f455243313135353a207472616e7366657220746f206e6f6e204552433131353560008201527f526563656976657220696d706c656d656e746572000000000000000000000000602082015250565b600062000f67603483620009ce565b915062000f748262000f09565b604082019050919050565b6000602082019050818103600083015262000f9a8162000f58565b9050919050565b7f455243313135353a204552433131353552656365697665722072656a6563746560008201527f6420746f6b656e73000000000000000000000000000000000000000000000000602082015250565b600062000fff602883620009ce565b91506200100c8262000fa1565b604082019050919050565b60006020820190508181036000830152620010328162000ff0565b9050919050565b612c4c80620010496000396000f3fe608060405234801561001057600080fd5b50600436106100e95760003560e01c806377097fc81161008c578063a3d80bae11610066578063a3d80bae1461025c578063b582525e1461027a578063e985e9c514610298578063f242432a146102c8576100e9565b806377097fc81461020657806388d7d31a14610222578063a22cb46514610240576100e9565b80631d2e2cc4116100c85780631d2e2cc41461017e5780632eb2c2d61461019c5780634e1273f4146101b85780636fc13971146101e8576100e9565b8062fdd58e146100ee57806301ffc9a71461011e5780630e89341c1461014e575b600080fd5b6101086004803603810190610103919061184b565b6102e4565b604051610115919061189a565b60405180910390f35b6101386004803603810190610133919061190d565b6103ac565b6040516101459190611955565b60405180910390f35b61016860048036038101906101639190611970565b61048e565b6040516101759190611a2d565b60405180910390f35b610186610522565b604051610193919061189a565b60405180910390f35b6101b660048036038101906101b19190611c4c565b610527565b005b6101d260048036038101906101cd9190611dde565b6105c8565b6040516101df9190611f14565b60405180910390f35b6101f06106e1565b6040516101fd919061189a565b60405180910390f35b610220600480360381019061021b9190611fd7565b6106e6565b005b61022a610810565b604051610237919061189a565b60405180910390f35b61025a6004803603810190610255919061205f565b610815565b005b61026461082b565b604051610271919061189a565b60405180910390f35b610282610830565b60405161028f919061189a565b60405180910390f35b6102b260048036038101906102ad919061209f565b610835565b6040516102bf9190611955565b60405180910390f35b6102e260048036038101906102dd91906120df565b6108c9565b005b60008073ffffffffffffffffffffffffffffffffffffffff168373ffffffffffffffffffffffffffffffffffffffff1603610354576040517f08c379a000000000000000000000000000000000000000000000000000000000815260040161034b906121e8565b60405180910390fd5b60008083815260200190815260200160002060008473ffffffffffffffffffffffffffffffffffffffff1673ffffffffffffffffffffffffffffffffffffffff16815260200190815260200160002054905092915050565b60007fd9b67a26000000000000000000000000000000000000000000000000000000007bffffffffffffffffffffffffffffffffffffffffffffffffffffffff1916827bffffffffffffffffffffffffffffffffffffffffffffffffffffffff1916148061047757507f0e89341c000000000000000000000000000000000000000000000000000000007bffffffffffffffffffffffffffffffffffffffffffffffffffffffff1916827bffffffffffffffffffffffffffffffffffffffffffffffffffffffff1916145b80610487575061048682610995565b5b9050919050565b60606002805461049d90612237565b80601f01602080910402602001604051908101604052809291908181526020018280546104c990612237565b80156105165780601f106104eb57610100808354040283529160200191610516565b820191906000526020600020905b8154815290600101906020018083116104f957829003601f168201915b50505050509050919050565b600181565b61052f6109ff565b73ffffffffffffffffffffffffffffffffffffffff168573ffffffffffffffffffffffffffffffffffffffff16148061057557506105748561056f6109ff565b610835565b5b6105b4576040517f08c379a00000000000000000000000000000000000000000000000000000000081526004016105ab906122da565b60405180910390fd5b6105c18585858585610a07565b5050505050565b6060815183511461060e576040517f08c379a00000000000000000000000000000000000000000000000000000000081526004016106059061236c565b60405180910390fd5b6000835167ffffffffffffffff81111561062b5761062a611a54565b5b6040519080825280602002602001820160405280156106595781602001602082028036833780820191505090505b50905060005b84518110156106d6576106a685828151811061067e5761067d61238c565b5b60200260200101518583815181106106995761069861238c565b5b60200260200101516102e4565b8282815181106106b9576106b861238c565b5b602002602001018181525050806106cf906123ea565b905061065f565b508091505092915050565b600381565b600073ffffffffffffffffffffffffffffffffffffffff1660038260405161070e919061246e565b908152602001604051809103902060009054906101000a900473ffffffffffffffffffffffffffffffffffffffff1673ffffffffffffffffffffffffffffffffffffffff1614610793576040517f08c379a000000000000000000000000000000000000000000000000000000000815260040161078a906124d1565b60405180910390fd5b336003826040516107a4919061246e565b908152602001604051809103902060006101000a81548173ffffffffffffffffffffffffffffffffffffffff021916908373ffffffffffffffffffffffffffffffffffffffff16021790555061080c3383600160405180602001604052806000815250610d28565b5050565b600281565b6108276108206109ff565b8383610ed8565b5050565b600081565b600481565b6000600160008473ffffffffffffffffffffffffffffffffffffffff1673ffffffffffffffffffffffffffffffffffffffff16815260200190815260200160002060008373ffffffffffffffffffffffffffffffffffffffff1673ffffffffffffffffffffffffffffffffffffffff16815260200190815260200160002060009054906101000a900460ff16905092915050565b6108d16109ff565b73ffffffffffffffffffffffffffffffffffffffff168573ffffffffffffffffffffffffffffffffffffffff1614806109175750610916856109116109ff565b610835565b5b610956576040517f08c379a000000000000000000000000000000000000000000000000000000000815260040161094d906122da565b60405180910390fd5b6109638585858585611044565b5050505050565b505050505050565b6000808273ffffffffffffffffffffffffffffffffffffffff163b119050919050565b60007f01ffc9a7000000000000000000000000000000000000000000000000000000007bffffffffffffffffffffffffffffffffffffffffffffffffffffffff1916827bffffffffffffffffffffffffffffffffffffffffffffffffffffffff1916149050919050565b600033905090565b8151835114610a4b576040517f08c379a0000000000000000000000000000000000000000000000000000000008152600401610a4290612563565b60405180910390fd5b600073ffffffffffffffffffffffffffffffffffffffff168473ffffffffffffffffffffffffffffffffffffffff1603610aba576040517f08c379a0000000000000000000000000000000000000000000000000000000008152600401610ab1906125f5565b60405180910390fd5b6000610ac46109ff565b9050610ad48187878787876112df565b60005b8451811015610c85576000858281518110610af557610af461238c565b5b602002602001015190506000858381518110610b1457610b1361238c565b5b60200260200101519050600080600084815260200190815260200160002060008b73ffffffffffffffffffffffffffffffffffffffff1673ffffffffffffffffffffffffffffffffffffffff16815260200190815260200160002054905081811015610bb5576040517f08c379a0000000000000000000000000000000000000000000000000000000008152600401610bac90612687565b60405180910390fd5b81810360008085815260200190815260200160002060008c73ffffffffffffffffffffffffffffffffffffffff1673ffffffffffffffffffffffffffffffffffffffff168152602001908152602001600020819055508160008085815260200190815260200160002060008b73ffffffffffffffffffffffffffffffffffffffff1673ffffffffffffffffffffffffffffffffffffffff1681526020019081526020016000206000828254610c6a91906126a7565b9250508190555050505080610c7e906123ea565b9050610ad7565b508473ffffffffffffffffffffffffffffffffffffffff168673ffffffffffffffffffffffffffffffffffffffff168273ffffffffffffffffffffffffffffffffffffffff167f4a39dc06d4c0dbc64b70af90fd698a233a518aa5d07e595d983b8c0526c8f7fb8787604051610cfc9291906126db565b60405180910390a4610d12818787878787611373565b610d2081878787878761137b565b505050505050565b600073ffffffffffffffffffffffffffffffffffffffff168473ffffffffffffffffffffffffffffffffffffffff1603610d97576040517f08c379a0000000000000000000000000000000000000000000000000000000008152600401610d8e90612784565b60405180910390fd5b6000610da16109ff565b90506000610dae85611552565b90506000610dbb85611552565b9050610dcc836000898585896112df565b8460008088815260200190815260200160002060008973ffffffffffffffffffffffffffffffffffffffff1673ffffffffffffffffffffffffffffffffffffffff1681526020019081526020016000206000828254610e2b91906126a7565b925050819055508673ffffffffffffffffffffffffffffffffffffffff16600073ffffffffffffffffffffffffffffffffffffffff168473ffffffffffffffffffffffffffffffffffffffff167fc3d58168c5ae7397731d063d5bbf3d657854427343f4c083240f7aacaa2d0f628989604051610ea99291906127a4565b60405180910390a4610ec083600089858589611373565b610ecf836000898989896115cc565b50505050505050565b8173ffffffffffffffffffffffffffffffffffffffff168373ffffffffffffffffffffffffffffffffffffffff1603610f46576040517f08c379a0000000000000000000000000000000000000000000000000000000008152600401610f3d9061283f565b60405180910390fd5b80600160008573ffffffffffffffffffffffffffffffffffffffff1673ffffffffffffffffffffffffffffffffffffffff16815260200190815260200160002060008473ffffffffffffffffffffffffffffffffffffffff1673ffffffffffffffffffffffffffffffffffffffff16815260200190815260200160002060006101000a81548160ff0219169083151502179055508173ffffffffffffffffffffffffffffffffffffffff168373ffffffffffffffffffffffffffffffffffffffff167f17307eab39ab6107e8899845ad3d59bd9653f200f220920489ca2b5937696c31836040516110379190611955565b60405180910390a3505050565b600073ffffffffffffffffffffffffffffffffffffffff168473ffffffffffffffffffffffffffffffffffffffff16036110b3576040517f08c379a00000000000000000000000000000000000000000000000000000000081526004016110aa906125f5565b60405180910390fd5b60006110bd6109ff565b905060006110ca85611552565b905060006110d785611552565b90506110e78389898585896112df565b600080600088815260200190815260200160002060008a73ffffffffffffffffffffffffffffffffffffffff1673ffffffffffffffffffffffffffffffffffffffff1681526020019081526020016000205490508581101561117e576040517f08c379a000000000000000000000000000000000000000000000000000000000815260040161117590612687565b60405180910390fd5b85810360008089815260200190815260200160002060008b73ffffffffffffffffffffffffffffffffffffffff1673ffffffffffffffffffffffffffffffffffffffff168152602001908152602001600020819055508560008089815260200190815260200160002060008a73ffffffffffffffffffffffffffffffffffffffff1673ffffffffffffffffffffffffffffffffffffffff168152602001908152602001600020600082825461123391906126a7565b925050819055508773ffffffffffffffffffffffffffffffffffffffff168973ffffffffffffffffffffffffffffffffffffffff168573ffffffffffffffffffffffffffffffffffffffff167fc3d58168c5ae7397731d063d5bbf3d657854427343f4c083240f7aacaa2d0f628a8a6040516112b09291906127a4565b60405180910390a46112c6848a8a86868a611373565b6112d4848a8a8a8a8a6115cc565b505050505050505050565b600073ffffffffffffffffffffffffffffffffffffffff168573ffffffffffffffffffffffffffffffffffffffff161461134e576040517f08c379a0000000000000000000000000000000000000000000000000000000008152600401611345906128ab565b60405180910390fd5b61136b86868686866040518060200160405280600081525061096a565b505050505050565b505050505050565b61139a8473ffffffffffffffffffffffffffffffffffffffff16610972565b1561154a578373ffffffffffffffffffffffffffffffffffffffff1663bc197c8187878686866040518663ffffffff1660e01b81526004016113e095949392919061292f565b6020604051808303816000875af192505050801561141c57506040513d601f19601f8201168201806040525081019061141991906129ac565b60015b6114c1576114286129e6565b806308c379a003611484575061143c612a08565b806114475750611486565b806040517f08c379a000000000000000000000000000000000000000000000000000000000815260040161147b9190611a2d565b60405180910390fd5b505b6040517f08c379a00000000000000000000000000000000000000000000000000000000081526004016114b890612b0a565b60405180910390fd5b63bc197c8160e01b7bffffffffffffffffffffffffffffffffffffffffffffffffffffffff1916817bffffffffffffffffffffffffffffffffffffffffffffffffffffffff191614611548576040517f08c379a000000000000000000000000000000000000000000000000000000000815260040161153f90612b9c565b60405180910390fd5b505b505050505050565b60606000600167ffffffffffffffff81111561157157611570611a54565b5b60405190808252806020026020018201604052801561159f5781602001602082028036833780820191505090505b50905082816000815181106115b7576115b661238c565b5b60200260200101818152505080915050919050565b6115eb8473ffffffffffffffffffffffffffffffffffffffff16610972565b1561179b578373ffffffffffffffffffffffffffffffffffffffff1663f23a6e6187878686866040518663ffffffff1660e01b8152600401611631959493929190612bbc565b6020604051808303816000875af192505050801561166d57506040513d601f19601f8201168201806040525081019061166a91906129ac565b60015b611712576116796129e6565b806308c379a0036116d5575061168d612a08565b8061169857506116d7565b806040517f08c379a00000000000000000000000000000000000000000000000000000000081526004016116cc9190611a2d565b60405180910390fd5b505b6040517f08c379a000000000000000000000000000000000000000000000000000000000815260040161170990612b0a565b60405180910390fd5b63f23a6e6160e01b7bffffffffffffffffffffffffffffffffffffffffffffffffffffffff1916817bffffffffffffffffffffffffffffffffffffffffffffffffffffffff191614611799576040517f08c379a000000000000000000000000000000000000000000000000000000000815260040161179090612b9c565b60405180910390fd5b505b505050505050565b6000604051905090565b600080fd5b600080fd5b600073ffffffffffffffffffffffffffffffffffffffff82169050919050565b60006117e2826117b7565b9050919050565b6117f2816117d7565b81146117fd57600080fd5b50565b60008135905061180f816117e9565b92915050565b6000819050919050565b61182881611815565b811461183357600080fd5b50565b6000813590506118458161181f565b92915050565b60008060408385031215611862576118616117ad565b5b600061187085828601611800565b925050602061188185828601611836565b9150509250929050565b61189481611815565b82525050565b60006020820190506118af600083018461188b565b92915050565b60007fffffffff0000000000000000000000000000000000000000000000000000000082169050919050565b6118ea816118b5565b81146118f557600080fd5b50565b600081359050611907816118e1565b92915050565b600060208284031215611923576119226117ad565b5b6000611931848285016118f8565b91505092915050565b60008115159050919050565b61194f8161193a565b82525050565b600060208201905061196a6000830184611946565b92915050565b600060208284031215611986576119856117ad565b5b600061199484828501611836565b91505092915050565b600081519050919050565b600082825260208201905092915050565b60005b838110156119d75780820151818401526020810190506119bc565b60008484015250505050565b6000601f19601f8301169050919050565b60006119ff8261199d565b611a0981856119a8565b9350611a198185602086016119b9565b611a22816119e3565b840191505092915050565b60006020820190508181036000830152611a4781846119f4565b905092915050565b600080fd5b7f4e487b7100000000000000000000000000000000000000000000000000000000600052604160045260246000fd5b611a8c826119e3565b810181811067ffffffffffffffff82111715611aab57611aaa611a54565b5b80604052505050565b6000611abe6117a3565b9050611aca8282611a83565b919050565b600067ffffffffffffffff821115611aea57611ae9611a54565b5b602082029050602081019050919050565b600080fd5b6000611b13611b0e84611acf565b611ab4565b90508083825260208201905060208402830185811115611b3657611b35611afb565b5b835b81811015611b5f5780611b4b8882611836565b845260208401935050602081019050611b38565b5050509392505050565b600082601f830112611b7e57611b7d611a4f565b5b8135611b8e848260208601611b00565b91505092915050565b600080fd5b600067ffffffffffffffff821115611bb757611bb6611a54565b5b611bc0826119e3565b9050602081019050919050565b82818337600083830152505050565b6000611bef611bea84611b9c565b611ab4565b905082815260208101848484011115611c0b57611c0a611b97565b5b611c16848285611bcd565b509392505050565b600082601f830112611c3357611c32611a4f565b5b8135611c43848260208601611bdc565b91505092915050565b600080600080600060a08688031215611c6857611c676117ad565b5b6000611c7688828901611800565b9550506020611c8788828901611800565b945050604086013567ffffffffffffffff811115611ca857611ca76117b2565b5b611cb488828901611b69565b935050606086013567ffffffffffffffff811115611cd557611cd46117b2565b5b611ce188828901611b69565b925050608086013567ffffffffffffffff811115611d0257611d016117b2565b5b611d0e88828901611c1e565b9150509295509295909350565b600067ffffffffffffffff821115611d3657611d35611a54565b5b602082029050602081019050919050565b6000611d5a611d5584611d1b565b611ab4565b90508083825260208201905060208402830185811115611d7d57611d7c611afb565b5b835b81811015611da65780611d928882611800565b845260208401935050602081019050611d7f565b5050509392505050565b600082601f830112611dc557611dc4611a4f565b5b8135611dd5848260208601611d47565b91505092915050565b60008060408385031215611df557611df46117ad565b5b600083013567ffffffffffffffff811115611e1357611e126117b2565b5b611e1f85828601611db0565b925050602083013567ffffffffffffffff811115611e4057611e3f6117b2565b5b611e4c85828601611b69565b9150509250929050565b600081519050919050565b600082825260208201905092915050565b6000819050602082019050919050565b611e8b81611815565b82525050565b6000611e9d8383611e82565b60208301905092915050565b6000602082019050919050565b6000611ec182611e56565b611ecb8185611e61565b9350611ed683611e72565b8060005b83811015611f07578151611eee8882611e91565b9750611ef983611ea9565b925050600181019050611eda565b5085935050505092915050565b60006020820190508181036000830152611f2e8184611eb6565b905092915050565b600067ffffffffffffffff821115611f5157611f50611a54565b5b611f5a826119e3565b9050602081019050919050565b6000611f7a611f7584611f36565b611ab4565b905082815260208101848484011115611f9657611f95611b97565b5b611fa1848285611bcd565b509392505050565b600082601f830112611fbe57611fbd611a4f565b5b8135611fce848260208601611f67565b91505092915050565b60008060408385031215611fee57611fed6117ad565b5b6000611ffc85828601611836565b925050602083013567ffffffffffffffff81111561201d5761201c6117b2565b5b61202985828601611fa9565b9150509250929050565b61203c8161193a565b811461204757600080fd5b50565b60008135905061205981612033565b92915050565b60008060408385031215612076576120756117ad565b5b600061208485828601611800565b92505060206120958582860161204a565b9150509250929050565b600080604083850312156120b6576120b56117ad565b5b60006120c485828601611800565b92505060206120d585828601611800565b9150509250929050565b600080600080600060a086880312156120fb576120fa6117ad565b5b600061210988828901611800565b955050602061211a88828901611800565b945050604061212b88828901611836565b935050606061213c88828901611836565b925050608086013567ffffffffffffffff81111561215d5761215c6117b2565b5b61216988828901611c1e565b9150509295509295909350565b7f455243313135353a2061646472657373207a65726f206973206e6f742061207660008201527f616c6964206f776e657200000000000000000000000000000000000000000000602082015250565b60006121d2602a836119a8565b91506121dd82612176565b604082019050919050565b60006020820190508181036000830152612201816121c5565b9050919050565b7f4e487b7100000000000000000000000000000000000000000000000000000000600052602260045260246000fd5b6000600282049050600182168061224f57607f821691505b60208210810361226257612261612208565b5b50919050565b7f455243313135353a2063616c6c6572206973206e6f7420746f6b656e206f776e60008201527f6572206e6f7220617070726f7665640000000000000000000000000000000000602082015250565b60006122c4602f836119a8565b91506122cf82612268565b604082019050919050565b600060208201905081810360008301526122f3816122b7565b9050919050565b7f455243313135353a206163636f756e747320616e6420696473206c656e67746860008201527f206d69736d617463680000000000000000000000000000000000000000000000602082015250565b60006123566029836119a8565b9150612361826122fa565b604082019050919050565b6000602082019050818103600083015261238581612349565b9050919050565b7f4e487b7100000000000000000000000000000000000000000000000000000000600052603260045260246000fd5b7f4e487b7100000000000000000000000000000000000000000000000000000000600052601160045260246000fd5b60006123f582611815565b91507fffffffffffffffffffffffffffffffffffffffffffffffffffffffffffffffff8203612427576124266123bb565b5b600182019050919050565b600081905092915050565b60006124488261199d565b6124528185612432565b93506124628185602086016119b9565b80840191505092915050565b600061247a828461243d565b915081905092915050565b7f5374616d7020697320616c7265616479206d696e746564210000000000000000600082015250565b60006124bb6018836119a8565b91506124c682612485565b602082019050919050565b600060208201905081810360008301526124ea816124ae565b9050919050565b7f455243313135353a2069647320616e6420616d6f756e7473206c656e6774682060008201527f6d69736d61746368000000000000000000000000000000000000000000000000602082015250565b600061254d6028836119a8565b9150612558826124f1565b604082019050919050565b6000602082019050818103600083015261257c81612540565b9050919050565b7f455243313135353a207472616e7366657220746f20746865207a65726f20616460008201527f6472657373000000000000000000000000000000000000000000000000000000602082015250565b60006125df6025836119a8565b91506125ea82612583565b604082019050919050565b6000602082019050818103600083015261260e816125d2565b9050919050565b7f455243313135353a20696e73756666696369656e742062616c616e636520666f60008201527f72207472616e7366657200000000000000000000000000000000000000000000602082015250565b6000612671602a836119a8565b915061267c82612615565b604082019050919050565b600060208201905081810360008301526126a081612664565b9050919050565b60006126b282611815565b91506126bd83611815565b92508282019050808211156126d5576126d46123bb565b5b92915050565b600060408201905081810360008301526126f58185611eb6565b905081810360208301526127098184611eb6565b90509392505050565b7f455243313135353a206d696e7420746f20746865207a65726f2061646472657360008201527f7300000000000000000000000000000000000000000000000000000000000000602082015250565b600061276e6021836119a8565b915061277982612712565b604082019050919050565b6000602082019050818103600083015261279d81612761565b9050919050565b60006040820190506127b9600083018561188b565b6127c6602083018461188b565b9392505050565b7f455243313135353a2073657474696e6720617070726f76616c2073746174757360008201527f20666f722073656c660000000000000000000000000000000000000000000000602082015250565b60006128296029836119a8565b9150612834826127cd565b604082019050919050565b600060208201905081810360008301526128588161281c565b9050919050565b7f4e6f74207472616e7366657261626c6521000000000000000000000000000000600082015250565b60006128956011836119a8565b91506128a08261285f565b602082019050919050565b600060208201905081810360008301526128c481612888565b9050919050565b6128d4816117d7565b82525050565b600081519050919050565b600082825260208201905092915050565b6000612901826128da565b61290b81856128e5565b935061291b8185602086016119b9565b612924816119e3565b840191505092915050565b600060a08201905061294460008301886128cb565b61295160208301876128cb565b81810360408301526129638186611eb6565b905081810360608301526129778185611eb6565b9050818103608083015261298b81846128f6565b90509695505050505050565b6000815190506129a6816118e1565b92915050565b6000602082840312156129c2576129c16117ad565b5b60006129d084828501612997565b91505092915050565b60008160e01c9050919050565b600060033d1115612a055760046000803e612a026000516129d9565b90505b90565b600060443d10612a9557612a1a6117a3565b60043d036004823e80513d602482011167ffffffffffffffff82111715612a42575050612a95565b808201805167ffffffffffffffff811115612a605750505050612a95565b80602083010160043d038501811115612a7d575050505050612a95565b612a8c82602001850186611a83565b82955050505050505b90565b7f455243313135353a207472616e7366657220746f206e6f6e204552433131353560008201527f526563656976657220696d706c656d656e746572000000000000000000000000602082015250565b6000612af46034836119a8565b9150612aff82612a98565b604082019050919050565b60006020820190508181036000830152612b2381612ae7565b9050919050565b7f455243313135353a204552433131353552656365697665722072656a6563746560008201527f6420746f6b656e73000000000000000000000000000000000000000000000000602082015250565b6000612b866028836119a8565b9150612b9182612b2a565b604082019050919050565b60006020820190508181036000830152612bb581612b79565b9050919050565b600060a082019050612bd160008301886128cb565b612bde60208301876128cb565b612beb604083018661188b565b612bf8606083018561188b565b8181036080830152612c0a81846128f6565b9050969550505050505056fea2646970667358221220976e71dbbca8fcd86e15e4d9063ba156747c01c133f1c22a9607c0d180c0588364736f6c63430008110033",
  "linkReferences": {},
  "deployedLinkReferences": {}
}